{
  "contractName": "AssemblyExample",
  "abi": [
    {
      "constant": false,
      "inputs": [
        {
          "name": "_addr",
          "type": "address"
        },
        {
          "name": "_a",
          "type": "uint256"
        },
        {
          "name": "_b",
          "type": "uint256"
        }
      ],
      "name": "callAdder",
      "outputs": [
        {
          "name": "ans",
          "type": "uint256"
        }
      ],
      "payable": false,
      "stateMutability": "nonpayable",
      "type": "function"
    },
    {
      "constant": false,
      "inputs": [
        {
          "name": "_addr",
          "type": "address"
        },
        {
          "name": "_n",
          "type": "uint256"
        }
      ],
      "name": "callUpdateN",
      "outputs": [
        {
          "name": "ans",
          "type": "uint256"
        }
      ],
      "payable": false,
      "stateMutability": "nonpayable",
      "type": "function"
    }
  ],
  "bytecode": "0x6060604052341561000f57600080fd5b61021b8061001e6000396000f30060606040526004361061004c576000357c0100000000000000000000000000000000000000000000000000000000900463ffffffff168063062ca63214610051578063d8aacddf146100a7575b600080fd5b341561005c57600080fd5b610091600480803573ffffffffffffffffffffffffffffffffffffffff16906020019091908035906020019091905050610106565b6040518082815260200191505060405180910390f35b34156100b257600080fd5b6100f0600480803573ffffffffffffffffffffffffffffffffffffffff16906020019091908035906020019091908035906020019091905050610177565b6040518082815260200191505060405180910390f35b60008060008085925082915060405180807f7570646174654e2875696e7432353629000000000000000000000000000000008152506010019050604051809103902090506040518181528560048201526020816024836000875af18151955060208201604052505050505092915050565b60008060008086925082915060405180807f73756d2875696e743235362c75696e74323536290000000000000000000000008152506014019050604051809103902090506040518181528660048201528560248201526020816044836000875af18151955060448201604052505050505093925050505600a165627a7a72305820bf7a25006603d72fe4db37407240f37caa8efcbde64de23de93b409d27cd54980029",
  "source": "pragma solidity ^0.4.21;\n//import \"./Called.sol\";\n\ncontract Called {\n    uint public n;\n    function updateN (uint256 _n) public returns (uint256) {\n        n = _n;\n        return n;\n    }\n}\n\ncontract Adder {\n    uint public n;\n    function sum(uint256 _a, uint256 _b) public returns (uint256) {\n        n = _a + _b;\n        return n;\n    }\n}\n\ncontract AssemblyExample {\n    \n    function callAdder(address _addr, uint256 _a, uint256 _b) public returns (uint ans) {\n        Adder a = Adder(_addr);\n        address addr = address(a);\n        bytes4 sig = bytes4(keccak256(\"sum(uint256,uint256)\")); // function signature\n        \n        assembly {\n            // free memory pointer : 0x40\n            \n            let x := mload(0x40) // get empty storage location\n            mstore ( x, sig ) // 4 bytes - place signature in empty storage\n            mstore (add(x, 0x04), _a) // 32 bytes - place first argument next to 4-bit signature\n            mstore (add(x, 0x24), _b) // 32 bytes - place second argument after first argument\n            \n            let ret := call (gas, \n                addr,\n                0, // no value passed to function\n                x, // input\n                0x44, // input size = 32 + 32 + 4 bytes\n                x, // output stored at input location, save space\n                0x20 // output size = 32 bytes\n            )\n                \n            ans := mload(x)\n            mstore(0x40, add(x,0x44)) // update free memory pointer\n        }\n    }\n    \n    function callUpdateN(address _addr, uint _n) public returns (uint ans) {\n        Called c = Called(_addr);\n        address addr = address(c);\n        bytes4 sig = bytes4(keccak256(\"updateN(uint256)\")); // function signature\n        \n        assembly {\n            // free memory pointer : 0x40\n            \n            let x := mload(0x40) // get empty storage location\n            mstore ( x, sig ) // 4 bytes\n            mstore (add(x, 0x04), _n) // 32 bytes -  place argument next to 4-bit signature\n            \n            let ret := call (gas, \n                addr,\n                0, // no value\n                x, // input\n                0x24, // input size = 32 + 4 bytes\n                x,\n                0x20)\n                \n            ans := mload(x)\n            mstore(0x40, add(x,0x20)) // update free memory pointer\n            \n        }\n    }\n}\n\n",
  "sourcePath": "/home/elizabeth/solidity-assembly/contracts/AssemblyExample.sol",
  "compiler": {
    "name": "solc",
    "version": "0.4.21+commit.dfe3193c.Emscripten.clang"
  },
  "schemaVersion": "2.0.0",
  "updatedAt": "2018-04-13T20:03:26.975Z"
}